{
  "rawTxHex": "0100000001b3260b80ff00720abd5f087e8498cb858200777338ea611159711714cb45efb3010000006a473044022076c8433685deac3396076a9f540cf9703480e7ba976564a0340bfb8acf0aa5dd022005080d63de528bcbec6cfbe86a6cc7c13ca8b707fdc0be90ef5a7a7e555935160121027ff789e190217f326906d1f26a81d6e4f55c9e33bff7e65264be134ba904286affffffff0200e1f505000000001976a914149968aa8086725f70d799c3852624b798da208088acdd5d2b19010000001976a914fd4a31786694a6f0a3c45023af95785811e28bae88ac00000000",
  "txObj": {
    "hash": "4bfbec4c21b661dae75fba53573ec593c2d38614e4d4bd9ba9f7dfb65ce75db6",
    "version": 1,
    "inputs": [
      {
        "prevTxId": "fa3c947448331c3d13f68d0e190a12ec29f541f4d5993e828f595a997c6f9255",
        "outputIndex": 1,
        "sequenceNumber": 4294967295,
        "script": "47304402206a4ca090d1fb6ed31acff961b5693d29ec444868c28df6b1a1201a396ae4d3390220099344d56cec5ead82795b01a3929ccd46aa62553bf51c2f86ce52f8cbb7b610012102e0f7114f6c9ca0c3bc37cb8a62d5a77955e98d6ee19704fbe6d0956f417fdf4d",
        "scriptString": "71 0x304402206a4ca090d1fb6ed31acff961b5693d29ec444868c28df6b1a1201a396ae4d3390220099344d56cec5ead82795b01a3929ccd46aa62553bf51c2f86ce52f8cbb7b61001 33 0x02e0f7114f6c9ca0c3bc37cb8a62d5a77955e98d6ee19704fbe6d0956f417fdf4d"
      }
    ],
    "outputs": [
      {
        "satoshis": 4682529773,
        "script": "76a9145448d232891f9f70dea16a470ae3ef2305de59ed88ac"
      },
      {
        "satoshis": 100000000,
        "script": "76a914149968aa8086725f70d799c3852624b798da208088ac"
      }
    ],
    "nLockTime": 0
  }
}
